:100000000C9472000C9412020C948F000C948F00CC
:100010000C948F000C948F000C948F000C948F0024
:100020000C948F000C948F000C948F000C948F0014
:100030000C948F000C948F000C948F000C948F0004
:100040000C948F000C948F000C948F000C948F00F4
:100050000C948F000C9475030C948F000C948F00FB
:100060000C948F000C948F0004030904180365009E
:100070006C0065007000680061006E007400640030
:1000800065006E00160355005300420065007800BD
:1000900061006D0070006C0065001201100100002D
:1000A0000008C016DC05000101020001090222005F
:1000B000010100800A090400000103000000092179
:1000C00001010001221600070581030800640600F3
:1000D000FF0901A101150026FF00750895800900A0
:1000E000B20201C011241FBECFEFD8E0DEBFCDBFEA
:1000F00011E0A0E0B1E0ECECF7E002C005900D9259
:10010000A230B107D9F712E0A2E0B1E001C01D9220
:10011000AD33B107E1F70E948A030C94E4030C9419
:1001200000001F93162F2091120224FF07C0209178
:10013000130238E823272093130203C02AE52093F3
:100140001202212FDC01E4E1F2E08D918193215034
:100150001216DCF384E192E0612F0E940E021C5F14
:10016000109312021F9108951F93CF93DF93609114
:100170002302635067FDC1C080912002CCE0D0E033
:10018000C81BD109C95DDD4F80911F028D3209F076
:10019000A1C0683009F0AFC083EC809307028AE504
:1001A00080930001109202018881807639F0CE019F
:1001B0000E9462038F3F09F47CC082C09A81109232
:1001C00010028981882331F41092110220E132E07B
:1001D00082E06AC0853019F49093240262C08630B0
:1001E00009F049C08B81813041F48AE990E0909315
:1001F00022028093210282E13AC0823041F48CEAEB
:1002000090E0909322028093210282E230C08330FA
:10021000C9F4992341F488E690E0909322028093F8
:10022000210284E024C0913041F48CE690E0909368
:1002300022028093210288E11AC09230B9F484E846
:1002400090E00EC0813241F48EEB90E09093220258
:100250008093210289E00BC0823241F48EEC90E061
:10026000909322028093210286E101C080E090E415
:100270009093020125C0883069F0893019F4909379
:1002800026020FC08A3049F08B3059F48BE48093FA
:10029000130207C026E232E002C020E132E081E032
:1002A00003C020E132E080E030932202209321025B
:1002B00007C0988197FD8E8190E89093020107C056
:1002C0009F81992321F49E81981708F4892F8093A8
:1002D000010111C08091020187FF0DC0CE010E9473
:1002E00046038F3F21F48EE18093000104C08823F0
:1002F00011F010920101109223028091000184FFFD
:100300005DC0809101018F3F09F458C0182F8930DA
:1003100008F018E0811B809301018091070298E8A2
:100320008927809307021123B9F18091020187FF89
:1003300009C088E092E0612F0E942A03182F8930BB
:10034000B8F52AC02091210230912202412F41505C
:1003500086FF0EC050E0EA01C75FDD4FF901A8E05B
:10036000B2E084918D933196AC17BD07D1F70CC0E4
:10037000D90150E0CA01875F9D4FE8E0F2E06D913E
:100380006193E817F907D9F74F5F5F4F420F531F8B
:10039000509322024093210288E092E0612F0E9454
:1003A0000E021C5F1C3041F08FEF8093010104C0EE
:1003B0008FEF809301011EE11093000184E199B158
:1003C0009C7031F48150D9F71092240210921E02D1
:1003D000DF91CF911F910895E9E6F0E0808182607E
:1003E0008083E89A8BE4809313028AE5809312025B
:1003F0000895A82FB92F80E090E041E050EA609581
:1004000030E009C02D9182279795879510F08427B9
:100410009527305EC8F36F5FA8F30895EADF8D93E8
:100420009D930895CF93CFB7CF93DF93C3954B9B05
:10043000E9F74B9B11C04B9B0FC04B9B0DC04B9BD7
:100440000BC04B9B09C04B9B07C04B9B05C04B9BF4
:1004500003C04B9B01C083C06F93C0912002DD2776
:10046000C95DDD4F2F9320E400C065E04B9B03C0C6
:100470002F916F91DECF0F931F934F9345E55F93BD
:1004800055E53F933BE014E009B10C702EC06A952E
:10049000C9F03150D8F109B10C7001130BC00894A8
:1004A0002795299320E4555500F46A9569F701E0F2
:1004B00069B10BC0102F66E02695299320E45555AD
:1004C00018F3E2CF0FEF69B10000162F455500F089
:1004D000404066E01C700030E2F221F0000009B1FB
:1004E0000C7003C009B10C70A9F0011309C0089485
:1004F000279568F200C06A95A9F700E069B1E5CFD9
:10050000102F66E0269528F20000ECCF11E01CBB0E
:10051000002719C03B503195C31BD04011E01CBBD4
:100520000881033C09F10B34F9F020911E02198176
:10053000110F1213EDCF4A81441F093651F10D32CC
:1005400011F0013E29F7009325023F915F914F91F1
:100550001F910F912F916F91CCB3C0FD67CFDF91A9
:10056000CF91CFBFCF91189520912502222369F317
:1005700010912302112381F5343082F1309323024C
:1005800020931F02109120023BE0311B3093200288
:1005900025C0009123020130FCF40AE54F7049F4B4
:1005A0003091000134FD1BC000930001C7E0D2E090
:1005B0001AC03091120234FD12C000931202C3E13E
:1005C000D2E011C0052710E000C00BB919C0052703
:1005D00010E0221F00C01DC04AE502C032ED432FCB
:1005E000C4E1D0E032E01AB11C605B9A0BB11AB9D9
:1005F0005CE020E869E420FF05270BB927951795F3
:1006000000C000001C3FF0F66695A8F7A1F720FF98
:1006100005270BB92795179500001C3FC0F62991B7
:100620003A9541F7037F10912402110F0BB9C6517F
:10063000D04011F010931E0211E01CBB08601AB1EB
:10064000137F402F437F55E05A95F1F70BB91AB944
:100650004BB97BCF282F70918601862F761708F42F
:10066000872F472F50E0E6E8F1E0E41BF50B392F28
:10067000D9019F01280F311D02C091919D93E2176E
:10068000F307D9F7781B709386010895409186018E
:10069000461708F4642FDC01242F30E0E7E0F2E095
:1006A000E21BF30BCF01860F911D02C02D91219308
:1006B000E817F907D9F7461B4093860181E04111FD
:1006C00080E00895FC0180818076803251F4818140
:1006D000813011F0893039F480E8809386018FEF02
:1006E000089580E0089580E008951F920F920FB65C
:1006F0000F9211248F93109204018091790087FD4D
:1007000003C081E0809304018F910F900FBE0F9082
:100710001F9018951F9381E08093030110920401AC
:10072000109205012EE088E190E00FB6F894A895AC
:10073000809360000FBE209360000E94EC01539AEA
:1007400080E007C0A895E7E8F3E13197F1F700C032
:1007500000008150B9F784B1866084B980917A0035
:10076000876080937A0080917C00806680937C0013
:1007700080917A00806280937A0080917A0080680C
:1007800080937A0080917A00886080937A005398F1
:10079000789480917A00806480937A0011E0A89523
:1007A0009091040180910601992321F0299A2A98B9
:1007B000816003C029982A9A8E7F80930601109346
:0C07C00003010E94B400EBCFF894FFCFBF
:0207CC005AFFD2
:00000001FF
